:020000041000EA
:1000000000B5324B212058609868022188439860DF
:10001000D860186158612E4B002199600221596106
:100020000121F02299502B49196001219960352056
:1000300000F044F80222904214D00621196600F024
:1000400034F8196E01211966002018661A6600F04E
:100050002CF8196E196E196E052000F02FF8012189
:100060000842F9D1002199601B49196000215960AB
:100070001A491B48016001219960EB211966A021F2
:10008000196600F012F800219960164914480160C1
:100090000121996001BC002800D000471248134993
:1000A000086003C880F30888084703B5996A0420EC
:1000B0000142FBD001200142F8D103BD02B5186610
:1000C0001866FFF7F2FF186E186E02BD00000240BE
:1000D000000000180000070000035F00212200005C
:1000E000F4000018222000A00001001008ED00E03C
:1000F00000000000000000000000000074B24E7A12
:1001000000200420F7010010CB010010CD010010E9
:10011000C9010010C9010010C9010010C901001077
:10012000C9010010C9010010C9010010CF01001061
:10013000C9010010C9010010D1010010D301001045
:10014000C1010010C1010010C1010010C101001067
:10015000C1010010C1010010C1010010C101001057
:10016000C1010010C1010010C1010010C101001047
:10017000C1010010C1010010C1010010C101001037
:10018000C1010010C1010010C1010010C101001027
:10019000C1010010C1010010C1010010C101001017
:1001A000C1010010C1010010C1010010C101001007
:1001B000C1010010C1010010C1010010C1010010F7
:1001C000EFF30580103800BE00BE00BE00BE00BECA
:1001D00000BE00BEF2EB887190CF0010B4CF0010CB
:1001E0003802001090A31AE71E481F49086006C88D
:1001F00081F3088810471D480068002801D019487D
:10020000F3E70DA40ECC002902D000F012F8F9E7B4
:100210001749184A002000E001C19142FCD116495B
:100220008847164988471649884700BEFDE701C937
:1002300001C29A42FBD37047B4CF0010C000002027
:100240004012002034E100100000042000000420CF
:1002500034E1001000100420001004200000000011
:10026000704700000000000008ED00E0000000D032
:1002700040120020403C00202D8100101118001079
:1002800025810010F8B5C0460448054B10B58342DF
:1002900003D0044B002B00D0984710BD4012002023
:1002A000401200200000000006480749091A8B1080
:1002B000C90FC91810B5491003D0044B002B00D04A
:1002C000984710BD4012002040120020000000009E
:1002D00010B5074C2378002B09D1FFF7D5FF054B4C
:1002E000002B02D0044800E000BF0123237010BDA2
:1002F000001B00200000000020B00010054B10B5CE
:10030000002B03D00449054800E000BFFFF7CCFFF5
:1003100010BDC04600000000041B002020B00010EB
:10032000F8B5EFF3108C72B6D0258024072301278F
:100330002D0664021AE0C046C046C046C046C0460C
:10034000C046C046C046C046C046C046C046C0467D
:10035000C046C046C046C046C046C046C046AC6166
:10036000C046C046C046C046013B15D30E001E41E4
:100370006C613742DFD1C046C046C046C046AC6162
:10038000C046C046C046C046C046C046C046C0463D
:10039000C046C046013BE9D2D02480210723012674
:1003A000240649021AE0C046C046C046C046C046C0
:1003B000C046C046C046C046C046C046C046C0460D
:1003C000C046C046C046C046C046C046C046A16101
:1003D000C046C046C046C046013B15D305001D417E
:1003E00061612E42DFD1C046C046C046C046A16111
:1003F000C046C046C046C046C046C046C046C046CD
:10040000C046C046013BE9D2D02080210723012508
:10041000000649021AE0C046C046C046C046C04673
:10042000C046C046C046C046C046C046C046C0469C
:10043000C046C046C046C046C046C046C0468161B0
:10044000C046C046C046C046013B15D314001C41FF
:1004500041612542DFD1C046C046C046C0468161E9
:10046000C046C046C046C046C046C046C046C0465C
:10047000C046C046013BE9D28CF310883C200021E5
:1004800004F070FEF8BDC04670B504005E4807F089
:10049000D9FF5E4B5E48E15808F058F88323DB0033
:1004A000E1585C4808F052F803F07CF9002801D1CB
:1004B00000F0E1FAD0258024574807F0C3FF032657
:1004C0002D066402EFF3108272B66C61C046C0461E
:1004D000C046C046AC61C046C046C046C046C046E5
:1004E000C046C046C046C046C0466C61C046C04615
:1004F000C046C046AC61C046C046C046C046C046C5
:10050000C046C046C046C046C0466C61C046C046F4
:10051000C046C046AC61C046C046C046C046C046A4
:10052000C046C046C046C046C0466C61C046C046D4
:10053000C046C046AC61C046C046C046C046C04684
:10054000C046C046C046C046C0466C61C046C046B4
:10055000C046C046AC61C046C046C046C046C04664
:10056000C046C046C046C046C0466C61C046C04694
:10057000C046C046AC61C046C046C046C046C04644
:10058000C046C046C046C046C0466C61C046C04674
:10059000C046C046AC61C046C046C046C046C04624
:1005A000C046C046C046C046C0466C61C046C04654
:1005B000C046C046AC61C046C046C046C046C04604
:1005C000C046C046C046C046C0460723062B25D1BC
:1005D0006C61C046C046C046C046C046C046C04624
:1005E000C046C046C046C046C046C046C046C046DB
:1005F000C046C046C046C046C046AC61C046C046C4
:10060000C046C046013B09E020B000101C040000B9
:100610003CB0001050B0001068B000106C61C046D3
:10062000C046C046C046AC61C046C046C046C04693
:10063000C046C046C046C046C046C046013BC5D2C3
:100640006C61C046C046C046C046AC61C046C046AC
:10065000C046C046C046C046C046C046C046C0466A
:100660006C61C046C046C046C046AC61C046C0468C
:10067000C046C046C046C046C046C046C046C0464A
:100680006C61C046C046C046C046AC61C046C0466C
:10069000C046C046C046C046C046C046C046C0462A
:1006A0006C61C046C046C046C046AC61C046C0464C
:1006B000C046C046C046C046C046C046C046C0460A
:1006C0006C61C046C046C046C046AC61C046C0462C
:1006D000C046C046C046C046C046C046C046C046EA
:1006E0006C61C046C046C046C046AC61C046C0460C
:1006F000C046C046C046C046C046C046C046C046CA
:100700006C61C046C046C046C046AC61C046C046EB
:10071000C046C046C046C046C046C046C046C046A9
:100720006C61C046C046C046C046AC61C046C046CB
:10073000C046C046C046C046C046C046C046C04689
:1007400082F3108800213C2004F00CFDC82004F046
:100750007FFDEFF3108372B66C61C046C046C046A1
:10076000C046AC61C046C046C046C046C046C04652
:10077000C046C046C046C0466C61C046C046C04682
:10078000C046AC61C046C046C046C046C046C04632
:10079000C046C046C046C0466C61C046C046C04662
:1007A000C046AC61C046C046C046C046C046C04612
:1007B000C046C046C046C0466C61C046C046C04642
:1007C000C046AC61C046C046C046C046C046C046F2
:1007D000C046C046C046C0466C61C046C046C04622
:1007E000C046AC61C046C046C046C046C046C046D2
:1007F000C046C046C046C0466C61C046C046C04602
:10080000C046AC61C046C046C046C046C046C046B1
:10081000C046C046C046C0466C61C046C046C046E1
:10082000C046AC61C046C046C046C046C046C04691
:10083000C046C046C046C0466C61C046C046C046C1
:10084000C046AC61C046C046C046C046C046C04671
:10085000C046C046C046C0466C61C046C046C046A1
:10086000C046AC61C046C046C046C046C046C04651
:10087000C046C046C046C0466C61C046C046C04681
:10088000C046AC61C046C046C046C046C046C04631
:10089000C046C046C046C0466C61C046C046C04661
:1008A000C046AC61C046C046C046C046C046C04611
:1008B000C046C046C046C0466C61C046C046C04641
:1008C000C046AC61C046C046C046C046C046C046F1
:1008D000C046C046C046C0466C61C046C046C04621
:1008E000C046AC61C046C046C046C046C046C046D1
:1008F000C046C046C046C0466C61C046C046C04601
:10090000C046AC61C046C046C046C046C046C046B0
:10091000C046C046C046C0466C61C046C046C046E0
:10092000C046AC61C046C046C046C046C046C04690
:10093000C046C046C046C0466C61C046C046C046C0
:10094000C046AC61C046C046C046C046C046C04670
:10095000C046C046C046C0466C61C046C046C046A0
:10096000C046AC61C046C046C046C046C046C04650
:10097000C046C046C046C0466C61C046C046C04680
:10098000C046AC61C046C046C046C046C046C04630
:10099000C046C046C046C0466C61C046C046C04660
:1009A000C046AC61C046C046C046C046C046C04610
:1009B000C046C046C046C0466C61C046C046C04640
:1009C000C046AC61C046C046C046C046C046C046F0
:1009D000C046C046C046C0466C61C046C046C04620
:1009E000C046AC61C046C046C046C046C046C046D0
:1009F000C046C046C046C0466C61C046C046C04600
:100A0000C046AC61C046C046C046C046C046C046AF
:100A1000C046C046C046C0466C61C046C046C046DF
:100A2000C046AC61C046C046C046C046C046C0468F
:100A3000C046C046C046C0466C61C046C046C046BF
:100A4000C046AC61C046C046C046C046C046C0466F
:100A5000C046C046C046C04683F310883C200021F3
:100A600004F080FB013EC82004F0F2FB002E01D010
:100A7000FFF728FD70BD2200210020001E326031EA
:100A8000FF32FF31153002F097FE002801D000F050
:100A90008FFA02F079FE6E4B010014221800D02567
:100AA000802407F053FD03262D066402EFF3108225
:100AB00072B60723062B1AD16C61C046C046C046E9
:100AC000C046C046C046C046C046C046C046C046F6
:100AD000C046C046C046C046C046C046C046C046E6
:100AE000C046AC61C046C046C046C046013B6C61D2
:100AF000C046C046C046C046AC61C046C046C046BF
:100B0000C046C046C046C046C046C046C046013B7F
:100B1000D0D26C61C046C046C046C046AC61C0463B
:100B2000C046C046C046C046C046C046C046C04695
:100B3000C0466C61C046C046C046C046AC61C046B7
:100B4000C046C046C046C046C046C046C046C04675
:100B5000C0466C61C046C046C046C046AC61C04697
:100B6000C046C046C046C046C046C046C046C04655
:100B7000C0466C61C046C046C046C046AC61C04677
:100B8000C046C046C046C046C046C046C046C04635
:100B9000C0466C61C046C046C046C046AC61C04657
:100BA000C046C046C046C046C046C046C046C04615
:100BB000C0466C61C046C046C046C046AC61C04637
:100BC000C046C046C046C046C046C046C046C046F5
:100BD000C0466C61C046C046C046C046AC61C04617
:100BE000C046C046C046C046C046C046C046C046D5
:100BF000C0466C61C046C046C046C046AC61C046F7
:100C0000C046C046C046C046C046C046C046C046B4
:100C1000C0460723052B1DD16C61C046C046C046A7
:100C2000C046C046C046C046C046C046C046C04694
:100C3000C046C046C046C046C046C046C046C04684
:100C4000C046AC61C046C046C046C046013B01E05C
:100C500098B000106C61C046C046C046C046AC614A
:100C6000C046C046C046C046C046C046C046C04654
:100C7000C046C046013BCDD282F3108800213C2003
:100C800004F070FAC82004F0E3FAEFF3108372B6B0
:100C90006C61C046C046C046C046AC61C046C04656
:100CA000C046C046C046C046C046C046C046C04614
:100CB0006C61C046C046C046C046AC61C046C04636
:100CC000C046C046C046C046C046C046C046C046F4
:100CD0006C61C046C046C046C046AC61C046C04616
:100CE000C046C046C046C046C046C046C046C046D4
:100CF0006C61C046C046C046C046AC61C046C046F6
:100D0000C046C046C046C046C046C046C046C046B3
:100D10006C61C046C046C046C046AC61C046C046D5
:100D2000C046C046C046C046C046C046C046C04693
:100D30006C61C046C046C046C046AC61C046C046B5
:100D4000C046C046C046C046C046C046C046C04673
:100D50006C61C046C046C046C046AC61C046C04695
:100D6000C046C046C046C046C046C046C046C04653
:100D70006C61C046C046C046C046AC61C046C04675
:100D8000C046C046C046C046C046C046C046C04633
:100D90006C61C046C046C046C046AC61C046C04655
:100DA000C046C046C046C046C046C046C046C04613
:100DB0006C61C046C046C046C046AC61C046C04635
:100DC000C046C046C046C046C046C046C046C046F3
:100DD0006C61C046C046C046C046AC61C046C04615
:100DE000C046C046C046C046C046C046C046C046D3
:100DF0006C61C046C046C046C046AC61C046C046F5
:100E0000C046C046C046C046C046C046C046C046B2
:100E10006C61C046C046C046C046AC61C046C046D4
:100E2000C046C046C046C046C046C046C046C04692
:100E30006C61C046C046C046C046AC61C046C046B4
:100E4000C046C046C046C046C046C046C046C04672
:100E50006C61C046C046C046C046AC61C046C04694
:100E6000C046C046C046C046C046C046C046C04652
:100E70006C61C046C046C046C046AC61C046C04674
:100E8000C046C046C046C046C046C046C046C04632
:100E90006C61C046C046C046C046AC61C046C04654
:100EA000C046C046C046C046C046C046C046C04612
:100EB0006C61C046C046C046C046AC61C046C04634
:100EC000C046C046C046C046C046C046C046C046F2
:100ED0006C61C046C046C046C046AC61C046C04614
:100EE000C046C046C046C046C046C046C046C046D2
:100EF0006C61C046C046C046C046AC61C046C046F4
:100F0000C046C046C046C046C046C046C046C046B1
:100F10006C61C046C046C046C046AC61C046C046D3
:100F2000C046C046C046C046C046C046C046C04691
:100F30006C61C046C046C046C046AC61C046C046B3
:100F4000C046C046C046C046C046C046C046C04671
:100F50006C61C046C046C046C046AC61C046C04693
:100F6000C046C046C046C046C046C046C046C04651
:100F70006C61C046C046C046C046AC61C046C04673
:100F8000C046C046C046C046C046C046C046C04631
:100F900083F310883C20002104F0E4F8013EC820CF
:100FA00004F056F9002E01D0FFF780FDFFF762FD37
:100FB00002F0AEFE554B0100180007F0C7FAEFF340
:100FC000108072B6D02380221B0652025A61C0469E
:100FD000C046C046C0469A61C046C046C046C046EC
:100FE000C046C046C046C046C046C0465A61C0461C
:100FF000C046C046C0469A61C046C046C046C046CC
:10100000C046C046C046C046C046C0465A61C046FB
:10101000C046C046C0469A61C046C046C046C046AB
:10102000C046C046C046C046C046C0465A61C046DB
:10103000C046C046C0469A61C046C046C046C0468B
:10104000C046C046C046C046C046C0465A61C046BB
:10105000C046C046C0469A61C046C046C046C0466B
:10106000C046C046C046C046C046C0465A61C0469B
:10107000C046C046C0469A61C046C046C046C0464B
:10108000C046C046C046C046C046C0465A61C0467B
:10109000C046C046C0469A61C046C046C046C0462B
:1010A000C046C046C046C046C046C0465A61C0465B
:1010B000C046C046C0469A61C046C046C046C0460B
:1010C000C046C046C046C046C046C04607210629A5
:1010D0001ED15A61C046C046C046C046C046C04642
:1010E000C046C046C046C046C046C046C046C046D0
:1010F000C046C046C046C046C046C0469A61C046CB
:10110000C046C046C046013902E0C046C8B0001023
:101110005A61C046C046C046C0469A61C046C046F5
:10112000C046C046C046C046C046C046C046C0468F
:101130000139CCD25A61C046C046C046C0469A6109
:10114000C046C046C046C046C046C046C046C0466F
:10115000C046C0465A61C046C046C046C0469A61B5
:10116000C046C046C046C046C046C046C046C0464F
:10117000C046C0465A61C046C046C046C0469A6195
:10118000C046C046C046C046C046C046C046C0462F
:10119000C046C0465A61C046C046C046C0469A6175
:1011A000C046C046C046C046C046C046C046C0460F
:1011B000C046C0465A61C046C046C046C0469A6155
:1011C000C046C046C046C046C046C046C046C046EF
:1011D000C046C0465A61C046C046C046C0469A6135
:1011E000C046C046C046C046C046C046C046C046CF
:1011F000C046C0465A61C046C046C046C0469A6115
:10120000C046C046C046C046C046C046C046C046AE
:10121000C046C0465A61C046C046C046C0469A61F4
:10122000C046C046C046C046C046C046C046C0468E
:10123000C046C04680F310883C20002103F092FF96
:10124000FA20400004F004F8FFF714FC10B507285A
:1012500009D80B4B80001B589F46202220210020DC
:10126000FFF75EF810BD202200210020FFF758F89C
:10127000F8E7002240210020FFF752F8F2E7C046CD
:101280001CC70010EFF3108072B6D0218022072314
:1012900009065202052B1AD14A61C046C046C04613
:1012A000C046C046C046C046C046C046C046C0460E
:1012B000C046C046C046C046C046C046C046C046FE
:1012C000C0468A61C046C046C046C046013B4A612E
:1012D000C046C046C046C0468A61C046C046C046F9
:1012E000C046C046C046C046C046C046C046013B98
:1012F000D0D2D023802207211B06520206291AD100
:101300005A61C046C046C046C046C046C046C046F8
:10131000C046C046C046C046C046C046C046C0469D
:10132000C046C046C046C046C0469A61C046C04698
:10133000C046C04601395A61C046C046C046C04694
:101340009A61C046C046C046C046C046C046C04678
:10135000C046C046C0460139D0D25A61C046C046D8
:10136000C046C0469A61C046C046C046C046C04658
:10137000C046C046C046C046C0465A61C046C04688
:10138000C046C0469A61C046C046C046C046C04638
:10139000C046C046C046C046C0465A61C046C04668
:1013A000C046C0469A61C046C046C046C046C04618
:1013B000C046C046C046C046C0465A61C046C04648
:1013C000C046C0469A61C046C046C046C046C046F8
:1013D000C046C046C046C046C0465A61C046C04628
:1013E000C046C0469A61C046C046C046C046C046D8
:1013F000C046C046C046C046C0465A61C046C04608
:10140000C046C0469A61C046C046C046C046C046B7
:10141000C046C046C046C046C0465A61C046C046E7
:10142000C046C0469A61C046C046C046C046C04697
:10143000C046C046C046C046C0465A61C046C046C7
:10144000C046C0469A61C046C046C046C046C04677
:10145000C046C046C046C046C04680F310883C2007
:10146000002103F07FFEFDE6EFF3108072B6D0237B
:1014700080221B0652025A61C046C046C046C04682
:101480009A61C046C046C046C046C046C046C04637
:10149000C046C046C0465A61C046C046C046C04667
:1014A0009A61C046C046C046C046C046C046C04617
:1014B000C046C046C0465A61C046C046C046C04647
:1014C0009A61C046C046C046C046C046C046C046F7
:1014D000C046C046C0465A61C046C046C046C04627
:1014E0009A61C046C046C046C046C046C046C046D7
:1014F000C046C046C0465A61C046C046C046C04607
:101500009A61C046C046C046C046C046C046C046B6
:10151000C046C046C0465A61C046C046C046C046E6
:101520009A61C046C046C046C046C046C046C04696
:10153000C046C046C0465A61C046C046C046C046C6
:101540009A61C046C046C046C046C046C046C04676
:10155000C046C046C0465A61C046C046C046C046A6
:101560009A61C046C046C046C046C046C046C04656
:10157000C046C046C046072106291AD15A61C04656
:10158000C046C046C046C046C046C046C046C0462B
:10159000C046C046C046C046C046C046C046C0461B
:1015A000C046C046C0469A61C046C046C046C04616
:1015B00001395A61C046C046C046C0469A61C0461D
:1015C000C046C046C046C046C046C046C046C046EB
:1015D000C0460139D0D2D021802207230906520209
:1015E000062B1AD14A61C046C046C046C046C04616
:1015F000C046C046C046C046C046C046C046C046BB
:10160000C046C046C046C046C046C046C0468A61C5
:10161000C046C046C046C046013B4A61C046C046BF
:10162000C046C0468A61C046C046C046C046C046A5
:10163000C046C046C046C046C046013BD0D20CE7BB
:10164000202240210020FEF76BFE0BE6EFF3108016
:1016500072B6D02380221B0652025A61C046C04691
:10166000C046C0469A61C046C046C046C046C04655
:10167000C046C046C046C046C0465A61C046C04685
:10168000C046C0469A61C046C046C046C046C04635
:10169000C046C046C046C046C0465A61C046C04665
:1016A000C046C0469A61C046C046C046C046C04615
:1016B000C046C046C046C046C0465A61C046C04645
:1016C000C046C0469A61C046C046C046C046C046F5
:1016D000C046C046C046C046C0465A61C046C04625
:1016E000C046C0469A61C046C046C046C046C046D5
:1016F000C046C046C046C046C0465A61C046C04605
:10170000C046C0469A61C046C046C046C046C046B4
:10171000C046C046C046C046C0465A61C046C046E4
:10172000C046C0469A61C046C046C046C046C04694
:10173000C046C046C046C046C0465A61C046C046C4
:10174000C046C0469A61C046C046C046C046C04674
:10175000C046C046C046C046C046072106291AD129
:101760005A61C046C046C046C046C046C046C04694
:10177000C046C046C046C046C046C046C046C04639
:10178000C046C046C046C046C0469A61C046C04634
:10179000C046C04601395A61C046C046C046C04630
:1017A0009A61C046C046C046C046C046C046C04614
:1017B000C046C046C0460139D0D2FFF7CEFDC04674
:1017C000F8B5104C0100200001F088FC0500200055
:1017D00001F07CFE0C4E04003078A0420FD001F0E6
:1017E00045FC0700200001F041FC084B02003900D5
:1017F000180006F0ABFE20003470FFF727FD28002C
:10180000F8BDC0460C3800203A3C0020ECB0001077
:10181000F0B5DE4657464E464546E0B59FB006F069
:10182000C3FD08F073FE0021002008F057FA1020D5
:1018300002F02AFFD02380221B0652025A620021A6
:1018400020220020FEF76CFDFA20800003F000FD4E
:10185000714806F0F7FD714806F0F4FD704806F097
:10186000F1FD704806F0EEFD6F4806F0EBFD01F06B
:10187000BBFE002801D100F0C5FD02F049FA6B4B18
:101880000100180006F062FE694B6A4C9B46180086
:101890002100694A01F0F6FB00225846674901F031
:1018A0001DFE2100644A664806F050FE654806F0B9
:1018B000C9FD654B65491800009300F013FE002830
:1018C00000D061E1624806F0BDFDEFF3108072B612
:1018D000D02380221B0652025A61C046C046C04631
:1018E000C0469A61C046C046C046C046C046C046D3
:1018F000C046C046C046C0465A61C046C046C04603
:10190000C0469A61C046C046C046C046C046C046B2
:10191000C046C046C046C0465A61C046C046C046E2
:10192000C0469A61C046C046C046C046C046C04692
:10193000C046C046C046C0465A61C046C046C046C2
:10194000C0469A61C046C046C046C046C046C04672
:10195000C046C046C046C0465A61C046C046C046A2
:10196000C0469A61C046C046C046C046C046C04652
:10197000C046C046C046C0465A61C046C046C04682
:10198000C0469A61C046C046C046C046C046C04632
:10199000C046C046C046C0465A61C046C046C04662
:1019A000C0469A61C046C046C046C046C046C04612
:1019B000C046C046C046C0465A61C046C046C04642
:1019C000C0469A61C046C046C046C046C046C046F2
:1019D000C046C046C046C046072106293AD15A61D2
:1019E000C046C046C046C046C046C046C046C046C7
:1019F000C046C046C046C046C046C046C046C046B7
:101A0000C046C046C046C0469A61C046C046C046B1
:101A1000C04601391EE0C0461CBC00102CB10010AD
:101A200054B100106CB1001088B10010B0B10010BA
:101A30000C38002000B2001039300000890400107A
:101A400008B2001020B2001098230020000020509F
:101A50003CB200105A61C046C046C046C0469A61BA
:101A6000C046C046C046C046C046C046C046C04646
:101A7000C046C046013900D3AFE75A61C046C046F0
:101A8000C046C0469A61C046C046C046C046C04631
:101A9000C046C046C046C046C0465A61C046C04661
:101AA000C046C0469A61C046C046C046C046C04611
:101AB000C046C046C046C046C0465A61C046C04641
:101AC000C046C0469A61C046C046C046C046C046F1
:101AD000C046C046C046C046C0465A61C046C04621
:101AE000C046C0469A61C046C046C046C046C046D1
:101AF000C046C046C046C046C0465A61C046C04601
:101B0000C046C0469A61C046C046C046C046C046B0
:101B1000C046C046C046C046C0465A61C046C046E0
:101B2000C046C0469A61C046C046C046C046C04690
:101B3000C046C046C046C046C0465A61C046C046C0
:101B4000C046C0469A61C046C046C046C046C04670
:101B5000C046C046C046C046C0465A61C046C046A0
:101B6000C046C0469A61C046C046C046C046C04650
:101B7000C046C046C046C046C04680F310883C20E0
:101B8000002103F0EFFAFEE7009C00222B49200021
:101B900000F0A2FD200000F057FD294806F052FC9D
:101BA000284806F04FFC284806F04CFC274806F071
:101BB00049FC274806F046FC264806F043FC264828
:101BC00006F040FC254806F03DFC254806F03AFCAE
:101BD000244806F037FCD02301201B0659685A68B8
:101BE0005B6892075B07DB0F0140D20F1E4806F0CF
:101BF000ADFC0023984644461D001C4B1C4F069329
:101C00001C4B02931C4B05931C4B0193012000219C
:101C1000404207F01BF8002007F0E0FD002805D047
:101C2000002007F0F5FD002800D06DE1009800F0DD
:101C300059FD061E00D04EE122E0C046C11700103B
:101C400064B2001080B20010B4B20010C0B2001034
:101C5000E4B2001008B3001024B3001040B3001029
:101C600060B3001084B3001098B300103CC700109C
:101C7000C02F0020E02F0020393C0020C0B300100E
:101C800003F0FCFB002900D11FE1FA22002392009F
:101C900003F042FF0600731B642B00D8F5E0002C14
:101CA00000D124E1EFF3108072B6D0218022072307
:101CB00009065202062B1AD14A61C046C046C046E8
:101CC000C046C046C046C046C046C046C046C046E4
:101CD000C046C046C046C046C046C046C046C046D4
:101CE000C0468A61C046C046C046C046013B4A6104
:101CF000C046C046C046C0468A61C046C046C046CF
:101D0000C046C046C046C046C046C046C046013B6D
:101D1000D0D2D023802207211B06520206291AD1D5
:101D20005A61C046C046C046C046C046C046C046CE
:101D3000C046C046C046C046C046C046C046C04673
:101D4000C046C046C046C046C0469A61C046C0466E
:101D5000C046C04601395A61C046C046C046C0466A
:101D60009A61C046C046C046C046C046C046C0464E
:101D7000C046C046C0460139D0D25A61C046C046AE
:101D8000C046C0469A61C046C046C046C046C0462E
:101D9000C046C046C046C046C0465A61C046C0465E
:101DA000C046C0469A61C046C046C046C046C0460E
:101DB000C046C046C046C046C0465A61C046C0463E
:101DC000C046C0469A61C046C046C046C046C046EE
:101DD000C046C046C046C046C0465A61C046C0461E
:101DE000C046C0469A61C046C046C046C046C046CE
:101DF000C046C046C046C046C0465A61C046C046FE
:101E0000C046C0469A61C046C046C046C046C046AD
:101E1000C046C046C046C046C0465A61C046C046DD
:101E2000C046C0469A61C046C046C046C046C0468D
:101E3000C046C046C046C046C0465A61C046C046BD
:101E4000C046C0469A61C046C046C046C046C0466D
:101E5000C046C046C046C046C0465A61C046C0469D
:101E6000C046C0469A61C046C046C046C046C0464D
:101E7000C046C046C046C046C04680F310883C20DD
:101E8000002103F06FF935000024584601F020FBD3
:101E9000002800D1BAE6D74AD7491368F31A8B4213
:101EA00000D8B3E65846166001F010FB01F0DEF8EA
:101EB0005A46D24B0100D35883225846D04ED20006
:101EC0008258300006F042FBA0E6FA21890003F0B8
:101ED000E5FD0600DFE603F0D1FA00290DD0FA2275
:101EE0000023920003F018FE34000500C8E65846AF
:101EF00001F0ECFAFFF7AAF9C5E7FA21890003F02F
:101F0000CDFD34000500BBE6402200200EA90EAE38
:101F100007F08CFCB2468244002800D186E6039587
:101F20000494554613E07B294FD101233B60B54B08
:101F3000B5481B780170002B00D12EE20122B34B73
:101F400098461B68002B21D00136B54230D03C6842
:101F50003178002CE7D0AE4B9C422CD8AB4BAA4832
:101F6000621C98463A601B680155222900D11DE287
:101F7000A44C2478002CE5D17B2900D110E27D29E6
:101F8000E0D14146013B0B60002BDDD18354802220
:101F90000299120101F016FF002800D019E2002377
:101FA00042461360059A01363B601370B542CED1AC
:101FB000039D049C3AE6019806F044FA0023934AF4
:101FC0003B6013608F4A1370BEE70B000A3BDBB225
:101FD0006E2B00D920E2069A9B00D3589F463039D9
:101FE000CCB201F0D1FB844200D3FEE1200001F02D
:101FF0007BFE80460028A7D02100864806F0A6FA7E
:1020000041460BA80A222C3100F000FC40460BA9E7
:1020100000F05EFF98E7804806F014FA7F4806F06B
:1020200011FA7F4806F00EFA7E4806F00BFA7E4859
:1020300006F008FA7D4806F005FA7D4806F002FA37
:102040007C4806F0FFF97C4806F0FCF97B4806F076
:10205000F9F97B4806F0F6F97A4806F0F3F97A4880
:1020600006F0F0F9794806F0EDF96DE7784806F0EA
:102070006DFA04E001200021404206F0E7FD002057
:1020800007F0C6FB0028F5D00BAC21000122002090
:1020900007F0CCFB21786F4806F058FA2478303CE2
:1020A000E4B2092C00D9A9E101F06EFB844200D30F
:1020B000BFE1200001F006FC002800D0C4E12100AF
:1020C000654806F043FA3FE7644806F0BBF9644808
:1020D00006F0B8F901235B429A46D0231B069846C6
:1020E000604B089507933B000996574699461EE0BA
:1020F00001200021404206F0A9FD434601265B680D
:102100001E4043465D686D07ED0FBE4201D1554547
:1021100007D021002B0032000798671C06F016FA42
:102120003C000A20002103F01DF8AA4637000020D9
:1021300007F06EFB0028DBD001220BA90020089DD0
:10214000099E07F073FB48484F4606F07BF9FBE613
:10215000464806F077F9584601F0B8F900F086FFD6
:10216000434B0100180006F0F1F9009B41491B7B2D
:10217000002B06D0012B00D164E13F49022B00D196
:102180006AE13E4806F0E2F9009B3D48D96906F055
:10219000DDF983235A46DB00D1583A4806F0D6F9D8
:1021A0005A46164BD024D158374806F0CFF90121B2
:1021B000240663683548194006F0C8F96168344858
:1021C0004907C90F06F0C2F901F0DEFA314B0100F0
:1021D0001422180006F0BAF9B6E62F4806F032F9D4
:1021E000584600F071FF009800F044FA00222B4B93
:1021F0001A70A9E6C42F0020102700001C0400005C
:1022000020BA0010393C0020C0270020BC27002045
:10221000FE070000CCB50010D8B70010F8B70010CA
:1022200004B8001024B8001048B8001060B80010BE
:102230007CB800109CB80010BCB80010D8B80010D2
:10224000F0B8001020B9001038B9001048B90010DB
:1022500004B6001028B600102CB6001074B9001097
:10226000A0B90010C8B90010DCB90010F8B3001014
:1022700018B4001008B1001000C300102CB40010F6
:102280003CB400105CB4001078B4001090B400109E
:10229000A4B40010BCB40010DCB300103A3C002021
:1022A000734806F0CFF8734C0BA821000A2200F007
:1022B000ADFA20004B38FF380BA900F009FE43E6C9
:1022C00001F05AFC40E6D0246B4806F0BBF801212F
:1022D000240663686948194006F038F9616868485F
:1022E0008907C90F06F032F9616866484907C90FC6
:1022F00006F02CF9644806F0A5F8644806F0A2F848
:10230000634806F09FF8634806F09CF81CE66248B4
:1023100006F098F8614B00249A46614B5246994664
:102320000F2398464B46B246A94616001D0001E011
:10233000402C0CD0315D280006F008F943460134EA
:102340002342F5D10A2006F033F8402CF2D10A20BE
:102350004D46564606F02CF8F6E5524806F072F85F
:10236000514806F06FF804E001200021404206F0D9
:102370006DFC002007F04CFA0028F5D00BAC0122D0
:102380002100002007F052FA202223789343592B92
:1023900023D0464806F056F8D6E5454B012298462C
:1023A000434641461B6801330B60CBE50419013CF1
:1023B00021785C2900D1C5E53E498A4609788946DD
:1023C00001218C464C4661464C4021005446217008
:1023D000B8E5029806F036F8E1E501F007FB0028C1
:1023E0001FD1354806F02EF8AEE501F0CDF9334B9C
:1023F00002002100180006F0A9F8A5E5304806F013
:1024000021F8A1E501F0C0F92E4B010014221800BB
:1024100006F09CF8FFF738FA0A002B4806F096F809
:1024200092E501F075FC294B0100180006F08EF8CA
:102430008AE501F0A9F9264B02002100180006F0F8
:1024400085F881E523499CE601F062FC224B0100FE
:10245000180006F07BF877E5204992E6204805F061
:10246000F1FF642002F0F4FE0021080003F0A0F95F
:10247000D4B400106B390020B4B60010D0B60010F0
:10248000FCB6001020B7001050B7001084B7001041
:10249000A8B70010C4B70010F8B400100E38002020
:1024A00000BD001020B5001058B50010B8B50010E0
:1024B000BC270020393C002088B50010E0B5001092
:1024C0007CB60010D4B10010E8B900109CB5001023
:1024D00058B6001018B100104CB6001024B100100E
:1024E00098B60010F0B5D6464F464646C0B5050032
:1024F0000C0086B0002800D182E0002900D17FE0E6
:102500000021200007F084FE061E76DB444B2000ED
:102510001900984607F098FE071E00D178E0414662
:10252000200007F0CFFE002398462B732B616B61D0
:102530002B76EB612B6280235B0202930300043352
:10254000C2011B031343374A2C6013408022D2057B
:1025500013430393344B6E600593344BA86004938C
:10256000334B81469A46A24453461D0D0635EDB2C3
:102570002900002002F05AF800220121002002F078
:102580006FF843460022310000932000013307F02A
:1025900015FF2900012002F049F8012301220093D0
:1025A0003100200007F00AFF2900022002F03EF867
:1025B00000220121022002F053F84346310000932B
:1025C00002222000013307F0F9FE0522194B3100E9
:1025D000E3181A60200002AB4A4607F049FF514653
:1025E00032004B1E9941144805F0B0FF022301222E
:1025F0000021124805F0AAFF03E0114805F022FF70
:102600000027380006B0E0BCBA46B146A846F0BD87
:102610000C4805F017FF3100200007F0E9FDEFE757
:10262000F8C80010FFFFFF80010411400000831074
:102630000000E0AF3820000090BA0010B8BA0010D7
:1026400044BA00106CBA001010B500280FD04168D1
:102650000268047E0B1D9B009C5001238B40146874
:102660002343136000230373014805F0EBFE10BD04
:10267000E4BA0010F8B5002829D0012216004168FC
:10268000134F8E40BC46802704683F062368B3433F
:1026900023604B005B18DB00E51865442F602F605A
:1026A000802504318A40AD0165192A601F258268A2
:1026B000E3182A40D8331A60226889003243226026
:1026C000002202760A510273024805F0BBFEF8BDF3
:1026D000D010000010BB0010002801D00161426141
:1026E0007047C04670B5041E4CD001224368016893
:1026F00008339A404868104230D19B005D58E36926
:102700000133E36102F0BAFE002915D0FA2200235A
:10271000920003F001FA237B2062002B14D023697E
:10272000002B19D06169E8B2984720760CCC0433AD
:102730009B009850012070BDFA21890003F0AEF98A
:10274000237B2062002BEAD101332373144805F068
:1027500079FE2369002BE5D1207EE6E702F08EFEAC
:10276000002911D0FA220023920003F0D5F9237B2F
:10277000002B07D0236A002B04D0C01AFA23DB00F9
:10278000984206D80020D6E7FA21890003F086F99E
:10279000EDE700230348237305F054FE0020CAE749
:1027A00040BB001020BB001070B500242F25002A6C
:1027B00012D120E01E00613E192E14D91E00303EB9
:1027C000092E1FD9203B5E4273415B422B405033A0
:1027D00003550134A2420CD00B5D002B09D01E0022
:1027E000413E192EE6D83F33DBB203550134A242F5
:1027F000F2D10A2C05D80B225021121B001903F02C
:10280000DBFF70BD3A3BDBB2E2E7C04670B5002AA1
:1028100022D000241F2510E01E006036F6B2192ECB
:1028200013D9F52B1BD87F3B5E1EB3415B422B4077
:10283000203303550134A2420DD00B5D502B11D033
:102840001E00803EF6B2192EE6D83F3BDBB20355A0
:102850000134A242F1D180180023037070BD3A33D5
:10286000DBB2E6E70019F7E7F8B5DE464E46454627
:1028700057469046A022E0B50500FF320F00002128
:1028800003F09AFF28000722FF210C3003F094FF89
:102890000B225021280003F08FFF1C23FF339946A1
:1028A0002C00A9444E465E34FF340B2250213000E8
:1028B00003F082FF30000B22502142300B3603F030
:1028C0007BFFB442F1D13B78002B00D147E21A00E4
:1028D000413A192A0ED9203A192A0BD93132092A3C
:1028E00000D819E2203B5A4253415A422F23134049
:1028F000503301E03F33DBB22B707B78002B00D1EB
:102900002FE21A00413A192A0ED9203A192A0BD976
:102910003132092A00D805E2203B5A4253415A423B
:102920002F231340503301E03F33DBB26B70BB7891
:10293000002B00D119E21A00413A192A6CD9203A29
:10294000192A69D93132092A00D8F1E1203B5A42CB
:1029500053415A422F2313405033AB70FB78002B66
:1029600000D108E21A00413A192A58D9203A192A06
:1029700055D93132092A00D8E0E1203B5A4253416F
:102980005A422F2313405033EB703B79002B00D178
:10299000F5E11A00413A192A44D9203A192A41D9B5
:1029A0003132092A00D8CFE1203B5A4253415A42E2
:1029B0002F23134050332B717B79002B00D1E2E1A0
:1029C0001A00413A192A30D9203A192A2DD9313220
:1029D000092A00D8BBE1203B5A4253415A422F23D7
:1029E000134050336B71BB79002B00D1CFE11A003B
:1029F000413A192A1CD91A00613A192A18D91A0021
:102A0000303A092A00D881E1203B5A4253415A42C8
:102A10002F23134050330DE03F33DBB29DE73F33AC
:102A2000DBB2B1E73F33DBB2C5E73F33DBB2D9E717
:102A30003F33DBB20720AB710B2350211A1A281841
:102A40009A4603F0B9FE0123EB7298332B73EB74B3
:102A5000FF222B0029006A73133394463431FA3A6B
:102A6000DA700A7011325A71133A9A712A32DA7195
:102A70005A72053A9A7793462A000026212123208C
:102A8000333219721E719E72DE725877DE771670BD
:102A9000424652BA91B2884661460A401A7342468B
:102AA000120A5A7387221A742A002E329E73DE731A
:102AB0000A3A9172D172167056709670D67016716D
:102AC00056719671D67116725672152294466A75B1
:102AD0000D322E759E54624651461A540F329E5442
:102AE0000132995401329E54013299545A469E54EF
:102AF0000132995401329E540231013299543B788B
:102B0000002B00D129E11A00413A192A00D8A8E087
:102B1000203A192A00D8A4E03132092A00D8F8E076
:102B2000203B5A4253415A422F23134050331C2218
:102B3000FF32AB547B78002B00D114E11A00413AEC
:102B4000192A00D890E0203A192A00D88CE03132B6
:102B5000092A00D8E3E0203B5A4253415A422F232E
:102B6000134050338E225200AB54BB78002B00D15F
:102B7000FDE01A00413A192A79D9203A192A76D962
:102B80003132092A00D8D0E0203B5A4253415A4200
:102B90002F23134050331E22FF32AB54FB78002BFF
:102BA00000D1E6E01A00413A192A63D9203A192ADD
:102BB00060D93132092A00D8BDE0203B5A42534146
:102BC0005A422F23134050338F225200AB543B798B
:102BD000002B00D1D1E01A00413A192A4DD9203AF0
:102BE000192A4AD93132092A00D8AAE0203B5A4290
:102BF00053415A422F23134050332022FF32AB540B
:102C00007B79002B00D1BCE01A00413A192A37D950
:102C1000203A192A34D93132092A00D89AE0203BC7
:102C20005A4253415A422F231340503390225200AC
:102C3000AB54BB79002B00D1A7E01A00413A192A06
:102C400021D91A00613A192A1DD91A00303A092AE5
:102C500059D9203B5A4253415A422F2313405033F3
:102C600013E03F33DBB262E73F33DBB27AE73F3357
:102C7000DBB290E73F33DBB2A6E73F33DBB2BCE722
:102C80003F33DBB2D2E73F33DBB222220720FF32F1
:102C9000AB540B225021121A484403F08DFD2F250E
:102CA00000203C4A12E019006139192915D9190090
:102CB0003039092924D9203B59424B415B422B40F2
:102CC00050332354013001320A280DD01378002BE1
:102CD0000AD0190041391929E5D83F33DBB2235412
:102CE000013001320A28F1D10B22121A502120188A
:102CF00003F062FDF0BCBB46B246A946A046F8BD53
:102D00003A3BDBB2DDE73A3BDBB2BEE73A3BDBB254
:102D100090E63A3BDBB20AE73A3BDBB2ECE53A3B02
:102D2000DBB21FE73A3BDBB200E63A3BDBB232E70D
:102D30003A3BDBB211E63A3BDBB245E73A3BDBB26A
:102D400022E63A3BDBB258E73A3BDBB233E63A3BAA
:102D5000DBB247E63A3BDBB268E7002099E70020A8
:102D60006AE6012068E6012093E7022064E602207B
:102D70008FE703208DE703205EE6042089E7042027
:102D80005AE6052085E7052056E6062081E706205D
:102D900052E6C04658BB0010F0B5C8234F46464621
:102DA000D6460022C0B5C25040339946403B9846B3
:102DB000133137330600002500240F009A4602E045
:102DC00001344C4514D0FC2C25D03B5DFE2BF7D1B3
:102DD00042466B1C2000B350FC2102F05FFE5346BC
:102DE000013171553B5543460134F5584C45EAD104
:102DF000C824FF23681C30517355C72806D8C72242
:102E00000021521B301803F0D7FC3451E0BCBA4605
:102E1000B146A846F0BD42466B1CB35052467255AF
:102E20003A5D1D00FE2AD3D00134CEE7B42809D87C
:102E3000822809D97D30C0B2312803D8154B8000D3
:102E40001B589F46144870471C281AD005D954288F
:102E500019D05528F6D11148F5E709280FD01528C3
:102E6000F0D10F48EFE70F48EDE70F48EBE70F48C9
:102E7000E9E70F48E7E70F48E5E70F48E3E70F48C2
:102E8000E1E70F48DFE70F48DDE70F48DBE70F48D2
:102E9000D9E7C0460CC90010E8BB0010D4BB001035
:102EA000DCBB00109CBB001084BB0010E0BB00101A
:102EB00090BB0010A8BB0010B4BB001070BB00108A
:102EC000C0BB0010CCBB001064BB001078BB00106E
:102ED00070B5040082B04C480D0005F0B3FA2278BA
:102EE000B42A0AD8822A68D913007D33DBB2312B89
:102EF00003D846499B00CB589F464549454805F0B5
:102F000025FB002D03D02900434805F01FFBE17885
:102F1000424805F01BFB23222223A25CE35CA1783C
:102F200012021A4363780902194352BA49BA92B29B
:102F300089B23B4805F00AFB2823E25C0133E35CDD
:102F40002A251B0213432622A15C0132A25C665D86
:102F500012020A4324210135605C655D0131615C28
:102F60002D023543090201436DBAADB25BBA52BAC4
:102F700049BA00959BB292B289B22A4805F0E6FAA6
:102F8000E57A627AA37A217A2748009505F0DEFA7D
:102F9000617B237B0902194349BA89B2234805F0B2
:102FA000D5FA217FE37E09021943214805F0CEFAC4
:102FB000204805F047FA02B070BD1C2A1BD005D985
:102FC000542A1AD0552A98D11B4997E7092A10D0BC
:102FD000152A00D091E7194990E719498EE7194958
:102FE0008CE719498AE7194988E7194986E7194999
:102FF00084E7194982E7194980E719497EE71949A9
:103000007CE719497AE7C046F0BB0010D4C900102C
:10301000E8BB001008BC001020BC001030BC001041
:103020003CBC00104CBC001070BC00108CBC0010EC
:1030300098BC0010A4BC0010D4BB0010DCBB001076
:103040009CBB001084BB0010E0BB001090BB0010C4
:10305000A8BB0010B4BB001070BB0010C0BB0010B8
:10306000CCBB001064BB001078BB0010072803D84D
:10307000024B8000C05870470148FCE7C8CA0010E6
:10308000BCBC0010F8B50400160085220D00A71C7A
:103090000021D20003F090FB320029003800FFF736
:1030A000E3FB2000A5303900FF30FFF775FE32004A
:1030B0002900044805F04AFA200000211530FFF7E6
:1030C00007FFF8BDC4BC001082220023D200038099
:1030D0008350014A8352704714040000F0B5D6466D
:1030E0004F464646C0B5037804000D0084B0012B5E
:1030F00020D00AD9023B032B14D84378861C0A2B14
:103100004FD8CF4A9B00D3589F46CE4805F01EFAB1
:10311000012D24D0602D31D0002D29D02900CA489E
:1031200005F014FA2E00300004B0E0BCBA46B146F7
:10313000A846F0BDD42900D141E10AD9D52900D152
:1031400038E1D629EED100230370C04805F07AF9A2
:10315000E8E70129E6D1002302260370E3E7002116
:10316000BB4805F0F3F9BB4805F06CF90026DAE737
:103170000021B94805F0EAF90026D4E701236021CF
:103180002370B64805F0E2F9B54805F05BF9602612
:10319000C9E78222D200835801338350132B00D118
:1031A000FFE02E0011E09C21822289008C46A021A4
:1031B000D2008358FF31C31863441D708358F65CF6
:1031C000013383508B4200D117E18322D200A358F0
:1031D0000133A350A7E78222D2008358FD2901D1F1
:1031E00001338350062BDCD1013B82226370002324
:1031F000D200A3509B4A9C48A35405F023F92E000B
:10320000E3E78221994BC900C71843585A1C425022
:10321000082A00D8DAE0C3189D33FF331E78002D4A
:1032200005D0FF2D00D0DCE001218E4BC154C42A13
:10323000CBD10623637082230022DB00E2508C484E
:1032400005F000F98B4B01A8E1180A22FFF7DEFA1E
:10325000380001A9FFF73CFEB7E70029A1D10523FB
:103260000380854B2C2198464246C3580133835036
:10327000824B2C22C75C7D4B79439C4615239A4692
:10328000614482444118504603F09CFA9F22920008
:103290009446E31963441B78BD00ED19A3736D00D8
:1032A000744BED19E9186023FF339946A1440B22B2
:1032B0006118484603F086FA2000714B1E30E91869
:1032C0000B226118FF3003F07DFA2000A530310099
:1032D000FF30FFF761FD6B4805F0B4F843466A48DC
:1032E000E15805F033F90A22494601A8FFF78EFAA2
:1032F000504601A9FFF7ECFD8423DB00E358002BC7
:1033000001D02000984700265FE76F2945D06F263F
:103310005BE76F2900D181E060260E40602E00D16E
:1033200083E0002900D03CE7544BC35C002BEAD07B
:1033300008230026437048E7612968D0622900D03D
:103340002FE709234370514805F07CF862263CE7DB
:10335000822200234349D2008350435401334370F7
:10336000FD2D00D01DE7FD2683502EE7FD2900D05E
:1033700017E78222D2008358591C092B00D197E00D
:10338000FD26815021E700223C4BC254002900D089
:1033900007E707230026437017E702236F26038001
:1033A00013E7103B437000238350394805F04AF877
:1033B0002E000AE7374805F045F8D526B3E6022384
:1033C0000380354805F03EF80026ACE6002D00D11C
:1033D000E7E6FF2D04D10122224BFF26C254F4E67A
:1033E0002E00204B7D19E35C002B0ED1013DFE2306
:1033F0002B708223DB00E25819E70423437000237B
:103400008350264805F01EF8DFE6FB35EFE7244B36
:1034100061260380234805F015F8D6E602230380D1
:10342000214805F00FF86F26CFE60F21134B2940F6
:10343000C154042303701D4805F088F8C5E6C04652
:103440009CCA0010F4BC0010B8BD00102CBE0010C7
:1034500008BD001038BD00109CBD001068BD0010F4
:1034600088BD001014040000DCBE001083020000C0
:10347000FCBE0010CD0300001C0400001504000079
:103480008B030000BCBF001078B40010A4BF001074
:1034900078BE001000BE0010CCBD0010B4BE0010FD
:1034A000030600008CBF001034BF001054BF001092
:1034B00000238350034BFD260380034804F0C2FF22
:1034C00083E6C0460302000044BE00100078704747
:1034D0000078431E9841C0B27047C0468423DB0089
:1034E000C150014BC250704724040000A52370B5A1
:1034F000344CDB00E5180123012033495B4222787C
:1035000001345A40030013405B4252080B405340C1
:1035100002001A4052425B080A405A40030013401E
:103520005B4252080B40534002001A4052425B0873
:103530000A405A40030013405B4252080B4053407C
:1035400002001A4052425B080A405A4003001340EE
:103550005B4252080B40534002001A4052420A405C
:103560005B085340A542CAD1DB43184C1848E168B8
:10357000A3600131E16004F0E9FFEFF3108572B65A
:1035800080211448490107F007FDC022210011489D
:10359000D20007F0E9FC85F31088A72220000E492D
:1035A000D20007F061FB002807D10C4B1870A179FD
:1035B0000B4804F0CBFF002070BD0A4804F042FF26
:1035C0000420F9E7D81500202083B8EDC8150020A5
:1035D00018C0001000F01F0000F01F103B3C00203E
:1035E0006CC0001044C0001070B55C4C5C482100F9
:1035F00004F0ACFF5B4B22689A4202D1A388012BF6
:1036000059D0594804F01EFFA722584C0021200031
:10361000D20003F0D1F8534B250023600123A3808F
:10362000A723DB00E61801230120514910355B4236
:103630002A7801355A40030013405B4252080B4080
:10364000534002001A4052425B080A405A400300AD
:1036500013405B4252080B40534002001A40524252
:103660005B080A405A40030013405B4252080B407B
:10367000534002001A4052425B080A405A4003007D
:1036800013405B4252080B40534002001A40524222
:103690000A405B085340AE42CAD1DB43A360FFF748
:1036A00025FF002857D10122324B00201A7000223A
:1036B000314B1A7070BDA379142BA2D801230120BD
:1036C0002E4C2B492E4D5B42227801345A40030088
:1036D00013405B4252080B40534002001A405242D2
:1036E0005B080A405A40030013405B4252080B40FB
:1036F000534002001A4052425B080A405A400300FD
:1037000013405B4252080B40534002001A405242A1
:103710005B080A405A40030013405B4252080B40CA
:10372000534002001A4052420A405B085340AC42E8
:10373000CAD1DB4309498A68934200D061E7A722D6
:103740000A4CD200200003F03DF8E268A1790D4850
:1037500004F0FCFEA7E70420ACE7C04600F01F1011
:103760009CC00010424D4B5004C10010C8150020F1
:103770002083B8ED3C3C00203B3C002010F01F10A3
:1037800038F51F10CCC00010044B1B78002B02D062
:10379000034B987970470020FCE7C0463C3C002072
:1037A000C81500201320034B9B799842804140426A
:1037B0007047C046C8150020F0B5C64600B5904613
:1037C0001F4A030012780E0084B0002A35D01D4D28
:1037D000AF79132F2CD87C01E4196400200010303D
:1037E00019002C22401902F0EDFF20003C300B2282
:1037F00031004019473402F0E5FF0B2241466019C1
:1038000002F0E0FF0122AB7931000133AB710E4BC6
:1038100001A81A700932FEF7F9FF3A0001A90B4816
:1038200004F094FEFFF762FE04B080BCB846F0BD21
:10383000074804F007FE0120F6E70620F4E7C0463B
:103840003C3C0020C81500203B3C002060C100101B
:1038500044C10010F8B51D00184B04001B78080087
:103860001600002B25D0164FBB79A34223D900297F
:1038700007D061010919490010312C22791802F092
:10388000A1FF002E08D06101091949003C310B222B
:103890003000791802F096FF002D08D063011B1943
:1038A0005B0047330B222800F91802F08BFF002041
:1038B000F8BD0620FCE70320FAE7C0463C3C0020A8
:1038C000C81500201D4B70B51B780600002B31D0A9
:1038D0001B4CA37983422FD9013B984213DA020093
:1038E000451CEDB2510189184900080052311030D1
:1038F00042222018611802F065FFA3792A00013BDB
:1039000001359A42EEDB5801C018400010304222C7
:103910000021201802F050FF0121A279094B013A41
:10392000D2B2197008483100A27104F00FFEFFF7FF
:10393000DDFD70BD0620FCE70320FAE73C3C0020DB
:10394000C81500203B3C002080C10010F0B5CE46D9
:10395000474680B51E00214B04001B78914685B078
:10396000002B37D01E4B98469B79834234D94501B2
:103970002D186D00002905D0280010302C2240445D
:1039800002F020FF2F004B463C374744002B04D069
:103990000B224946380002F015FF002E06D04735AD
:1039A00028000B223100404402F00CFF01220D4B95
:1039B00039001A7001A80932FEF728FF210001AA78
:1039C000094804F0C3FDFFF791FD05B0C0BCB9463E
:1039D000B046F0BD0620F8E70320F6E73C3C0020A7
:1039E000C81500203B3C0020B4C10010F8B52C4B9A
:1039F0001B78002B52D02B4804F024FDA7222A4C20
:103A000000212000D200E56802F0D6FE274B2600F8
:103A100023600123A380A723DB00E71801230120F3
:103A2000234910365B42327801365A400300134076
:103A30005B4252080B40534002001A4052425B085E
:103A40000A405A40030013405B4252080B40534067
:103A500002001A4052425B080A405A4003001340D9
:103A60005B4252080B40534002001A4052425B082E
:103A70000A405A40030013405B4252080B40534037
:103A800002001A4052420A405B085340B742CAD172
:103A9000DB43E560A360FFF729FDF8BD0620FCE7E6
:103AA0003C3C0020D4C10010C8150020424D4B50B2
:103AB0002083B8ED70B5002805D02B4B1A78002371
:103AC000002A4DD10360002947D0274B1B78002BDB
:103AD00044D0A523254DDB00EE1801230124244802
:103AE0005B422A7801355A40230013405B4252085A
:103AF0000340534022001A4052425B0802405A40A1
:103B0000230013405B4252080340534022001A40F6
:103B100052425B0802405A40230013405B42520865
:103B20000340534022001A4052425B0802405A4070
:103B3000230013405B4252080340534022001A40C6
:103B4000524202405B085340AE42CAD1DB43094AAD
:103B50009268D31A5A4253410B7070BD0B70FCE748
:103B6000044BDB68AEE7C0463C3C0020D815002083
:103B70002083B8EDC8150020F0B5C64600B54D4B02
:103B800088B01B78002B00D190E04B4804F05AFC21
:103B90004A4D1422A9794A4804F0D8FCE9684948FA
:103BA00004F0D4FCA7232C00DB001034EF18012311
:103BB0002600012044495B42327801365A40030016
:103BC00013405B4252080B40534002001A405242DD
:103BD0005B080A405A40030013405B4252080B4006
:103BE000534002001A4052425B080A405A40030008
:103BF00013405B4252080B40534002001A405242AD
:103C00005B080A405A40030013405B4252080B40D5
:103C1000534002001A4052420A405B085340BE42E1
:103C2000CAD1DB43A968994210D0284A284804F039
:103C30008DFCAB79002B10D1264804F003FC0A2040
:103C400004F0B6FB08B080BCB846F0BD224A20485C
:103C500004F07CFCAB79002BEED0204804F0F2FBA2
:103C6000AB79002BEBD01E4B0026984605AF210008
:103C70000A222C3102A8FEF7C9FD21000A223731A1
:103C80003800FEF7C3FD2078FFF7D0F80197E278FF
:103C9000030031000092404602AA04F057FC0136AE
:103CA000AA79F3B242349A42E1D8C8E70D4804F049
:103CB000C9FBC7E73C3C002024C20010C815002007
:103CC00040C200105CC200102083B8EDFCC100109F
:103CD00070C2001088C20010F8C100109CC2001011
:103CE000B0C2001008C20010074B1B78002B09D08F
:103CF000064A9379834205D94301181840001030D1
:103D0000801870470020FCE73C3C0020C8150020CC
:103D1000062803D8024B8000C05870470148FCE7D2
:103D2000E8CA0010E8BB001070B5040092B0224B46
:103D3000224A0D0002A8402104F0B4F9200002A993
:103D400006F0C0FE061E15D002A806F0E9FB325CA4
:103D50003418002A0ED0012119481300093BDBB2A8
:103D6000172B0AD80200DA40114203D062780134DE
:103D7000002AF2D1002012B070BD3A2AFAD163783D
:103D8000661C002B0DD00E49393A093BDBB2172BCC
:103D900007D80800D840024203D073780136002BC0
:103DA000F3D10A22300001A907F03EF8019BB3428B
:103DB000E0D028600120DEE794B8001028C300108E
:103DC00013008000F0B54E464546DE465746E0B546
:103DD000140006000D000020CDB0002E03D00029F5
:103DE00001D03F2A06D84DB0F0BCBB46B246A9462A
:103DF000A046F0BD3CA98946C04A4021C04B484678
:103E0000179204F04FF94946300006F05BFE071E9A
:103E100015D0484606F084FB3A5C3918002A0ED0CB
:103E20000120B84F1300093BDBB2172B0ED83A0024
:103E3000DA40104203D04A780131002AF2D1210041
:103E40002800B14A04F02EF90120CCE73A2AF6D135
:103E50004A78481C002AF2D00121AA4F1300093BDE
:103E6000DBB2172B08D83A00DA401142E7D042788B
:103E70000130002AF2D1E2E7222AE0D129A94278D2
:103E8000471C04A888468446932100236144002AE5
:103E900008D128E21F2B00D12BE10133CA54FA5C70
:103EA000002A01D0222AF5D14344002241461A704B
:103EB000964804F04BFB964B299A9A4217D0954AA4
:103EC000299B934268D0944A934200D13EE1934AA1
:103ED000934200D1C8E1924A934200D1E5E04346C3
:103EE000210028008F4A04F0DDF801207BE74346DB
:103EF0001B79002BE3D19846FFF746FC2100179071
:103F00000600894A280004F0CDF80700002E3CD0B6
:103F100064235B429B46854BA2461893844BA34483
:103F200019934446A8462CE0E0B2FFF7DDFE061EDA
:103F300023D001000A2248462C31FEF767FC307876
:103F4000FEF774FF0500002C07D05346D91B4346EB
:103F5000199AD81904F0A6F83F185346D91B4346BE
:103F6000D819F378019503934B4602933378189A46
:103F70000093230004F096F83F18179B0134A342E6
:103F800001DD5F45D0DB454654466A4AE11BE8192E
:103F900004F088F8012026E7300025A9FFF7C4FEC9
:103FA00000287BD0259FF8B2FFF79EFE061E00D1A9
:103FB0009BE1010031AB18000A222C319846FEF734
:103FC00025FC31000A2237314846FEF71FFC3078C5
:103FD000FEF72CFF3379584A1593337FF17E1B028D
:103FE0000B431493737B317B1B020B435BBA9BB275
:103FF00013934B4612932023F35C1193F37F10939A
:10400000B37F0F93737F0E93F37A0D93B37A0C9370
:10401000737A0B93337A0A932A23F15C0133F35CAE
:104020001B020B435BBA9BB209932823F15C01335B
:10403000F35C1B020B435BBA9BB208932623F15C33
:104040000133F35C1B020B435BBA9BB2079324233F
:10405000F15C0133F35C1B020B435BBA9BB206932A
:104060002223F15C0133F35C1B020B435BBA9BB26E
:104070000593B37871781B020B435BBA9BB2049330
:10408000F378019003934346029333782100009321
:1040900028003B0004F006F80120A4E621002800D7
:1040A000264A03F0FFFF01209DE64246244B9288FA
:1040B0009A4200D013E743469B79002B00D00EE7CD
:1040C00031AE31004846FFF7F5FCFFF75DFB327873
:1040D00003003C99002A00D1E8E01A48019114211C
:1040E0000290009128002100174A03F0DBFF012015
:1040F00079E604AA944694336344D6E628C30010B4
:1041000040C300101300800044C3001064C30010BB
:104110006C697374676574007365740064656C65BD
:104120007374617484C5001084C3001098C30010B8
:1041300094C30010DCC300101CC40010E4C30010C2
:104140007573000030C3001040C5001030001AA97C
:10415000FFF7EAFD80460028A0D01A9B1CAAD8B21F
:1041600031AB9A461FAB51461890FFF773FB0028FE
:1041700000D091E0A74B300019001F0006F0A2FC10
:10418000002800D1ABE07B2106F0F8F98346002837
:1041900000D1A4E04021A04B179A484603F082FFCB
:1041A0005846494606F08EFC8346002817D04846FC
:1041B00006F0B6F95B461A5C1918002A0FD0974B27
:1041C00001209C461300093BDBB2172B70D86246D6
:1041D000DA40104203D04A780131002AF2D1390086
:1041E000300006F06FFC002879D07B2106F0C6F97C
:1041F000061E74D0002398464021894B179A4846E2
:1042000003F050FF3000494606F05CFC061E16D055
:10421000484606F085F9325C3118002A0FD001209B
:104220007E4E1300093BDBB2172B00D9D8E03200D9
:10423000DA40104203D04A780131002AF1D1002639
:104240001CAB9B464346002B4AD000235A46310004
:104250001898FFF77BFB00281ED121002800714A27
:1042600003F020FF0120BEE541466F4A8988914254
:1042700000D030E642469279002A00D02BE649462B
:104280003000FFF751FD002800D107E73C98C0B28D
:10429000FFF718FB0028E0D0FFF73AFD21000300EC
:1042A000624A280003F0FEFE01209CE5604815E705
:1042B0003A2A94D14A1C4978002990D0574B0120C2
:1042C0009C460B00093BDBB2172B15D86146D94041
:1042D000084284D0517801320029F2D17FE70026CC
:1042E00000239B46B1E74346DFE521002800514A01
:1042F00003F0D8FE012076E5222900D06FE753783D
:10430000002B00D12CE1222B00D129E122A90B7036
:104310009378002B00D121E1222B00D11EE14B70BC
:10432000D378002B00D117E1222B00D114E18B7040
:104330001379002B00D10DE1222B00D10AE1CB70C3
:104340005379002B00D103E1222B00D100E10B7146
:104350009379002B00D1F9E0222B00D1F6E04B71CC
:10436000D379002B00D1EFE0222B00D1ECE08B7150
:10437000137A002B00D1E5E0222B00D1E2E0CB71D3
:10438000537A002B00D1DBE0222B00D1D8E00B7256
:10439000937A002B00D1D1E0222B00D1CEE04B72DA
:1043A000D37A002B00D1C7E0222B00D1C4E08B725E
:1043B0000B230022CB181A701CA80A32FEF7F4F95E
:1043C0003000390006F07EFB1CAB061E9B4600D178
:1043D0003BE77B2106F0D2F8061E00D00CE734E75D
:1043E0003A2A00D02BE74A1C4978002900D126E759
:1043F00001200A4E0B00093BDBB2172B1CD8310001
:10440000D940084200D11AE7517801320029F1D190
:1044100015E7C04608C5001010C500101300800045
:104420001CC5001024C5001074650000ECC4001009
:1044300038C3001000C400105B2900D0FFE6501CF8
:1044400052780026002A00D1F9E6474F5D2A25D090
:10445000042E26D001211300093BDBB2172B4FD8C5
:104460003A00DA40114203D042780130002AF2D1FA
:104470000A221BA9814606F0D7FC03001B98484579
:104480000CD004AA9446711CB6002136FF3666444F
:1044900002789C3E33600E00002AD7D1002E00D156
:1044A000CDE65246259B1372002B43D0537F002B41
:1044B00001D123335377012E20D05146269A25ABC4
:1044C0004A72002A2BD08A7F002A01D123328A77B0
:1044D000022E13D051469A688A72002A1DD0CA7FD4
:1044E000002A01D12332CA77042E07D15246DB6855
:1044F000D372002B15D1202251468B5456469FE68D
:104500002C2A07D14278431C002AC7D05D2AC5D087
:104510001800A0E75D2AABD1C0E7CA77E4E78A7745
:10452000D6E72023D25C002AE8D1514623325646F2
:10453000CA5485E65377BEE70A233AE7092338E7EA
:10454000082336E7072334E7062332E7052330E75D
:1045500004232EE703232CE702232AE7012328E77D
:10456000002322A925E7C0461300800000487047B9
:1045700054CB00100048704708CB0010F0B5C64679
:1045800000B582B0002821D003282FD004282BD8D2
:10459000214B8000C558280005F0C2FFC0B2041CA2
:1045A0001F2800D91F24E4B2002808D000231B4A8A
:1045B000E95C01331180D9B202328C42F8D8C022B2
:1045C0000134E3B25B009200134307E0124B022276
:1045D0001968124802F0F6F8C1239B0010480380C6
:1045E00002B080BCB846F0BD0020F9E7684604F090
:1045F000D9F80C4B6E461D0098461C000A4F10352A
:10460000200032783900023403F036FD0136A5422D
:10461000F6D14546BFE7C04620100020F22000201A
:10462000F0200020E8370020A4C50010094A8300CC
:104630009A1810B514684022544080322240064C2B
:10464000C000A44663441A60044B9C466044416029
:1046500010BDC04604C0014004D0014000400140EC
:10466000074B8000C3181B68C90092000A435A40D8
:104670000C231340034A9446604403607047C046CD
:1046800004C0014004D001400123D022834012061F
:1046900093629361094A83009A181168402251403D
:1046A00080320A400649C0008C4663441A60054BBC
:1046B0009C460523604443607047C04604C00140E7
:1046C00004D00140004001408023DB051868000F42
:1046D0007047C0460FB400B5084883B003F0B2FE7F
:1046E000049B002B07D005A91800019103F000FDE1
:1046F000034803F0A7FE012003F012FDE8C50010F7
:104700001CBC0010EFF3108072B6034A1368002B34
:10471000FCD0BFF35F8F70472C0100D0BFF35F8FD9
:104720000022024B1A6080F3108870472C0100D0E1
:1047300070B5EFF3108C72B60D4D2B68002BFCD0CA
:10474000BFF35F8F0724CB08C618C05C01230C4061
:10475000A3401C000440034207D118433070BFF34C
:104760005F8F2C608CF3108870BD1000FFF7B2FFD4
:104770002C0100D0F8B54746CE46884680B5EFF309
:10478000108C72B61C4D2C68002CFCD0BFF35F8FD0
:104790009A4222D807210126894602E0013293423B
:1047A00018D34D4637001540AF40D4080119045DB9
:1047B0002742F3D110003C430C70BFF35F8F0022FF
:1047C0000D4B1A608CF3108800280EDBC0BCB94674
:1047D000B046F8BD01204042EFE7BFF35F8F0023F2
:1047E0002B608CF31088012040424346002BEDD013
:1047F0000898FFF76FFFC0462C0100D030B5EFF3EB
:10480000108C72B60A4C2368002BFCD0BFF35F8F6C
:10481000072301220B409A40CD08435D9343435543
:10482000BFF35F8F002323608CF3108830BDC04638
:104830002C0100D0044A1078431CDBB2172B00D99E
:10484000102313707047C046341000200021044B21
:10485000044ABFF35F8F02C39342FAD17047C04648
:10486000000100D0800100D0054B064A1360064AC3
:10487000136053609360D360136153619361704719
:104880008080808000E400E004E400E01F23184002
:104890001E3B8340002905D0C021044A49005350E3
:1048A00013607047802201498B50FAE700E100E075
:1048B00070B50D00EFF3108672B60F4A1368002B27
:1048C000FCD0BFF35F8F0D4B10309B6884001B59E9
:1048D0000B4A934203D09D4201D000F08DFF074B5D
:1048E0009B681D51BFF35F8FBFF35F8F0022024BA8
:1048F0001A6086F3108870BD240100D000ED00E03E
:10490000C1010010F0B557464E46DE464546E0B5BB
:1049100085B0060000911700EFF3108B72B66A4A5B
:104920001368002BFCD0BFF35F8F0025674B5D57EA
:104930009A46002D00DAA9E06B00654C01935B19E3
:104940009B009846A146C1444B4652469B7910367F
:104950001370604BB6009B6899590B1B2F2B33D9F2
:104960005D4B994200D0ACE0019B42469C465B4BBC
:104970006544AD0063535A4B0232A218043B9B1AA4
:104980001B05584A5B0D651913436B80564B01217B
:10499000AB80FF23AB71009BEF71AB604B460B43C9
:1049A00019004C4B9B689951BFF35F8FBFF35F8F2A
:1049B0000022454B1A608BF3108805B0F0BCBB4653
:1049C000B246A946A046F0BD01200A008243D37931
:1049D0008C46BB4231D84546130044491B1B5B4102
:1049E0005943090D3D4B63533D4B02356519043B5B
:1049F0005B1B1B053B4D5B0D2B43AA464D466B8055
:104A00000425AC465546E044131F44441B1B1B05BC
:104A10005B0D1D434B46997100999D8099604946F5
:104A2000DF71334B01431360BBE75800C0188000AF
:104A30002018C179B9422FD902000623D356002B82
:104A4000F3DA02932B4B61460393131D9A4604231A
:104A50005B429C46E14450464B461B1A1B055B0DCE
:104A60009C46204B9571984663464046034393808D
:104A7000019B5A199200039BA418A380029B1C4A15
:104A8000A371009B2260E771A3608AE700F0B4FE87
:104A9000002553465D574FE7908802934005131D4C
:104AA0009A46031561469C464046D444634604300A
:104AB0002018181AE0230005400D1B02184303902C
:104AC000C5E700F099FE4FE7240100D0383C0020F4
:104AD0003810002000ED00E0C101001000A1FFFF30
:104AE0006810002000E0FFFF01BDFFFFAAAA000040
:104AF0000148804701BD000070B501240443EFF375
:104B00000581EFF3108C72B6214A1368002BFCD09C
:104B1000BFF35F8F1F4B05001F4AED1A6D416A43BB
:104B2000120D1E4D8900AE6852B27658A6421CD0B6
:104B30000621595691421CD012215956914222D039
:104B40001E215956914220D02A21595603249142C0
:104B500010D0134B19781A708171BFF35F8F002248
:104B60000B4B1A608CF3108870BDAB680D4C5C5019
:104B7000EFE700246100091989005B18FF21997192
:104B800009499980E5E70124F4E70224F2E7C046E9
:104B9000240100D038100020AAAA000000ED00E097
:104BA000383C0020C101001001BDFFFF024B9C46B4
:104BB00061448900016070474000003470B5114CB9
:104BC000114DAC420FD2FF262368002B0CD0FFF70B
:104BD00031FE01002000FFF7E9FFA680BFF35F8FE1
:104BE0000834AC42F0D370BDFFF724FE0100200072
:104BF000FFF7DCFF2671BFF35F8F0834AC42E3D3CD
:104C0000F1E7C046381200204012002010B5040021
:104C1000FFF710FE01002000FFF7C8FFFF232371FC
:104C2000BFF35F8F10BDC0460A4B1968EFF31080C9
:104C300072B60A68002AFCD0BFF35F8F1B68BFF30F
:104C40005F8F00221A6080F3108840BF002000218F
:104C50007047C04600380020F0B5DE4657464E4645
:104C60004546E0B587B0EFF30583032201251A40DE
:104C7000954091008846A946B34B03925C58B34BCC
:104C80001D60B34B04934B46B24843630823E55E73
:104C9000002D37DAA3881BB2002B00DBADE0A3792F
:104CA000002B00D0EEE00823E05E002820DB43006C
:104CB00062691B18DB00D3189E68DD68731C00D185
:104CC00011E1A44801004144826A0B69B71A9B1A9A
:104CD0009F4215D30123026A039883401A420FD0E2
:104CE0009C4800F0C3FB8D4202DCCCD18642CAD97D
:104CF00040BF07B0F0BCBB46B246A946A046F0BDD7
:104D00000E61EDE762696B0092465B19DB009A4425
:104D100053469E68DF6800F0A9FB8F42BADC00D1E1
:104D200003E1002F00DAE8E05246534652691B695E
:104D30009346049A934200D1D9E052460821605E1E
:104D400052880004594610439847009001910099F9
:104D5000019A0B001000134300D1CEE013000A00AB
:104D6000B61A9F41002806DB7A4800F07FFB009EC0
:104D7000019F36184F4153469E60DF6000229A5EC5
:104D8000002A00DA86E7530099186069C9004118C3
:104D900002938B68C9689B46B94200DD7AE702D16D
:104DA000B34200D976E708239C46A444059565469E
:104DB0002281A446029B2C0006E053009918C900EA
:104DC00041188D68C968AB469B18DB00C318B9420F
:104DD00006DC00D1B3E01C000023E25E002AECDA1E
:104DE000230064469C4653461A806346059D1D80F9
:104DF000A3881BB2002B00DA51E72269EFF3108180
:104E000072B61368002BFCD0BFF35F8F0123A78815
:104E10005B42A3803FB22369BFF35F8F00221A6019
:104E200081F31088002F00DA39E7230008332200CD
:104E30009A4666697B00DB19DB00F31899685046D7
:104E40008C460824115FDD68002910DB029306E020
:104E5000AB4244D00023E15E2000002906DB4C0079
:104E60006418E4003419E368AB42F1DD029B07806B
:104E700000201F5E1980002FDCDA1400A379002BBC
:104E800000D110E70023A37126000823E15E083655
:104E90004B1C00D12CE70800A246656902E03E00E9
:104EA0004B1C1AD04B005B18DB00EF180A008C4635
:104EB000E95E7B881BB2002BF1DA01235B42DC1731
:104EC000BB60FC60824205D0534631801B893B8029
:104ED00053461A8160464B1CE4D15446E5E6A3686C
:104EE0006345B7D9C2E76B1C00D0EAE6F8E65B463B
:104EF00058461B69984700281BD153461B882269D6
:104F00002381EFF3108372B611680029FCD0BFF340
:104F10005F8F514662880A8022696580BFF35F8F88
:104F20000021116083F31088B4E6864200D8F8E6C9
:104F3000B0E65B461A685B680092019307E7B345E9
:104F400000D848E74CE7C046D02F00203C70054011
:104F5000594C00100040054070B52E4C2569002DBD
:104F600004D00A212C48FFF721FE70BD2B4E0321EF
:104F7000300000F071FAE660FFF75CFC284B03227A
:104F80009C46D02322701B061B6801216370254BB1
:104F90006044A3600F238000206102206380636966
:104FA0004942A18019800231198647311D83585228
:104FB00018315A5275325C3999521832013199526E
:104FC000183201319952183201319952083518328C
:104FD0009D520231183299521832013199521832C9
:104FE00001319952183201319952183201319952D6
:104FF0001832013199520C4B0C49DC60013035629A
:10500000FFF756FC01210320FFF740FC084B1D6011
:10501000A7E7C0468010002000380020004005406F
:1050200040000034FFFF1000D02F0020594C00102A
:1050300038600540004870478010002070B50100BE
:105040000469EFF3108C72B620680028FCD0BFF31F
:105050005F8F02200D5E4C6968004019C000241863
:105060000869002D36DB26884E80BFF35F8F00264F
:1050700006608CF31088E360638804980133206134
:105080005B0405985B0CA26060611A1C002B1FD0AA
:1050900093B22804628018430A69EFF3108C72B649
:1050A0001368002BFCD0BFF35F8F8B8823808D802B
:1050B0000B69BFF35F8F00221A608CF310880B78A6
:1050C00001329A40CB6808498C4663441A6070BD2F
:1050D0000122DDE7BFF35F8F002303608CF31088AC
:1050E00001204042F3E7C0463C20000010B5438950
:1050F0000A1493421ADD53009B184269DB00D3184F
:105100000469EFF3108C72B62268002AFCD0BFF35A
:105110005F8F5A88090494B2090C8A4208D0036947
:10512000BFF35F8F00221A608CF31088002010BD3F
:105130008022120214435C80012302698371BFF351
:105140005F8F002111608CF31088044902788C462F
:105150009340C268012062441360E8E73C200000ED
:1051600040787047F0B5C64600B582B004000D0027
:1051700000F084F924184D41002D02DA01242F4D4E
:10518000644206267642F71736196F41AF4214D8AB
:1051900011D000F073F932003B00121A8B41002B42
:1051A00015DC002B46D02000290000F071F902B078
:1051B00080BCB846F0BDA642EBD90026002700F01F
:1051C0005DF932003B00121A8B41002BE9DD00F043
:1051D00055F932003B00121A8B41002B0ADB0023E9
:1051E0000193174B3200009316483B00FFF726FF50
:1051F0000130D8D000233900B0469C46124A1348EB
:10520000536A994204D8966A4645CCD29942CAD18B
:105210000668EFF3108772B63368002BFCD0BFF33B
:105220005F8F0368BFF35F8F66461E6087F3108849
:1052300020BFE5E7002AB6D0C9E7C046FFFFFF7FE1
:10524000294C00108010002000400540003800204C
:10525000F0B5C64600B582B0040000F00FF9FA229E
:1052600006000F00200000230021920001F03AFA0E
:105270008019794104000D1E02DA01242E4D64428A
:1052800006267642F71736196F41AF4214D811D06F
:1052900000F0F4F832003B00121A8B41002B15DCB1
:1052A000002B46D02000290000F0F2F802B080BCAC
:1052B000B846F0BDA642EBD90026002700F0DEF884
:1052C00032003B00121A8B41002BE9DD00F0D6F8CA
:1052D00032003B00121A8B41002B0ADB00230193A2
:1052E000164B3200009316483B00FFF7A7FE013033
:1052F000D8D000233900B0469C46124A1248536A5F
:10530000994204D8966A4645CCD29942CAD10668D9
:10531000EFF3108772B63368002BFCD0BFF35F8FBA
:105320000368BFF35F8F66461E6087F3108820BF57
:10533000E5E7002AB6D0C9E7FFFFFF7F294C001040
:10534000801000200040054000380020F0B557468E
:105350004E46DE464546E0B506000F0085B0EFF349
:10536000058399468B46002B12D0384900204B6AA2
:10537000BB4206D38A6ADB1B591E8B41B2424041B5
:10538000184305B0F0BCBB46B246A946A046F0BDE6
:105390002F4B9A46DB68984653461B78404603934A
:1053A00000F064F84246039B040004339B009B58C2
:1053B0000D001B1A39003000001BA941894510DC83
:1053C0000DD020BF214A0020536A5B45D9D3926A91
:1053D000DB1B591E8B41B24240411843D1E7834247
:1053E000EFD900F04BF832003B00121A8B41002B32
:1053F0001ADB00230193174B3200009350463B0009
:10540000FFF71CFE011E0FDD104B5A6A5A451BD3D5
:105410009B6AB34216D35046FFF768FE0B4A002042
:10542000536A5B45ADD3D2E7084A0020536A5B4517
:10543000A7D30020926ADB1BB24240415A1E93411F
:1054400018439EE75A45E6D120BFE4E700400540F7
:1054500080100020294C001010B5024A0248FFF7C6
:1054600067F910BDF8C500105C2300200300416AF5
:105470000A00986A596A8A42FAD17047034B596AFE
:105480000A00986A596A9142FAD170470040054073
:10549000064A536A9942FCD807D1044B02E05A6A83
:1054A000914202D19A6A9042F9D870470040054073
:1054B000F8B5DE464E4657464546E0B58B460500F4
:1054C0000A991800160000F0E9FA0A9B6C001F0206
:1054D000324B64199C46A4006444636881469F4231
:1054E00000D967602B1FDBB29846012B30D9C0234F
:1054F00080229B01E31812011A60294BAD00595913
:105500009A4600291BD17301E026226853401E40B1
:10551000802342465B01E3181E60012A30D98023B4
:1055200080229B01E31812011A6053464A466760C5
:105530005A51F0BCBB46B246A946A046F8BD5869D0
:1055400000F0ACFA013043001B18033BFDD2DAE750
:105550005B46012BCBD1C02303229B01E3181A60C9
:10556000023AA3681A42FCD07301E0262268AD001B
:1055700053401E4080230A4A5B019246E3181E6096
:105580005A462168514003220A401A6001225B46B4
:105590009A40A3681A42FCD0C1E7C0460080004090
:1055A00064230020F0B546464F46D646C0B51F00DE
:1055B000344B44009C462418A40064446368884625
:1055C0001600FF2B02D880235B006360031FDBB251
:1055D0009A46012B30D9C02380229B01E318120187
:1055E0001A60294B85005959994600291BD173012E
:1055F000E026226853401E40802352465B01E31898
:105600001E60012A30D9802380229B01E3181201F9
:105610001A6080235B0063604B465F51E0BCBA4672
:10562000B146A846F0BD586900F038FA0130430091
:105630001B18033BFDD2DAE74346012BCBD1C02335
:1056400003229B01E3181A60023AA3681A42FCD0B5
:105650007301E0262268850053401E4080230A4AD9
:105660005B019146E3181E604246216851400322C7
:105670000A401A60012342469340A2681342FCD0BC
:10568000C1E7C0460080004064230020014B800039
:10569000C058704764230020F8B5040021481E005C
:1056A00017000D0000F0FAF90100380000F0F6F9DB
:1056B000069B36041B031E432368002B20DB1A4B7A
:1056C0001A49E3185A1E93418022920194465B4284
:1056D0001B0B174A1B0363441360164A13601F0019
:1056E0000A689743FBD1144B2560E2182123A06080
:1056F00013602368002BFCDA0823E6601360F8BD12
:105700003F2322681340AB42D9D1A3681B051B0D70
:105710008342D4D1EE22E368D2021340B342CED109
:10572000EDE7C046001BB7000040FDBF08C00040C9
:1057300000E0004000F00040043000008023024AF6
:105740009B000B43D362704700800540002310B5D7
:105750000100988A1B8B984710BDC046162310B5D0
:105760000100188802331B88984710BDF8B54746DA
:10577000CE4680B50F1E18D014239946043304007A
:105780000025012698464B461888434621681B8809
:10579000984701C4431E984101350640AF42F2D1FB
:1057A0003000C0BCB946B046F8BD0126F8E7C04697
:1057B000002370B504000D00988A03491B8B98479D
:1057C000290003002000984755420000AA23064AFA
:1057D0001B0113608D235B00D3600449044B1960E7
:1057E0005368002BFCDA70470040024000B0FA001A
:1057F000006002407047C04610B50148FEF76AFFDE
:105800001CC6001070B5074D074EB54209D20024E2
:10581000013E761BB60808CD984723000134B342F9
:10582000F9D170BDD8AF001014B00010054B064A76
:1058300006491A60064A074B1A6010000B68984325
:10584000FBD1704700E00040BFCDFBFE08C0004028
:10585000FE7F3C0000F00040044BDB6C002B03D1CA
:105860008022034BD2021A607047C04600001150DC
:105870004C201150044A054B1A60054A1368DB019D
:105880008033FBD17047C046FFFFFF0100F00040AE
:1058900008C000404022034B9A675A671A67DA66CD
:1058A0007047C04600F0014010B5FEF7CFFF10BDB5
:1058B000F8B52749274C284D641AA6103200302E1F
:1058C00000D930222800920000F07CFFBC2C3BD88D
:1058D00030202F232C196407204A801BE40F9B1BC8
:1058E000052B16D93700002C02D0B300771CEA50E4
:1058F000001B33199B004108EB18C900C9181A6036
:105900005A6008339942FAD1012303421CD09843CC
:10591000C619B300EA50731C2F2E15D09B00EA5015
:10592000B31C2E2E10D09B00EA50F31C2D2E0BD052
:105930009B00EA50331D2C2E06D09B00EA50731DAD
:105940002B2E01D09B00EA50054B9D60F8BDC04650
:1059500000010010C001001000000020C101001073
:1059600000ED00E0002310B5294C82B0A367FFF7DB
:105970002DFF0122274B1A60636C012BFCD10322FF
:10598000254B1A60224A936B012BFCD10133009303
:105990000121224A22480433FFF77EFE052301211C
:1059A0000093204A2048FFF777FE002202210420BE
:1059B0001E4BFFF7F7FD0022012105201C4BFFF7CE
:1059C000F1FD0022002107201A4BFFF7EBFD00221A
:1059D00000210820174BFFF7E5FD8023DB00009333
:1059E000002200210920134BFFF762FD0022104B1B
:1059F00000210620FFF7D6FD0420FFF747FE0E49E1
:105A000000F04CF801000020FFF798FE02B010BD36
:105A1000008000403CB0004030B00040002F68598A
:105A200000800240008C864700C00240001BB70087
:105A300040597307006CDC0240420F00014804210A
:105A4000014B1847A01000206D570010124A936FA9
:105A50009B0815D29066D166002905D0FFE7FFE7C5
:105A6000FFE7516F106F704704B580210906C21718
:105A70005140002800D0C84305F086FA002104BD3B
:105A8000F0B5146E556E576F166FFFF7E3FF14668F
:105A9000556657671667F0BD000000D0114A936F36
:105AA0009B0813D210665166002905D0FFE7FFE777
:105AB000FFE7516F106F704704B5002801D0002038
:105AC000C04305F061FA002104BDC046F0B5146E74
:105AD000556E576F166FFFF7E5FF146655665767EB
